:020000041000EA
:1000000000B5324B212058609868022188439860DF
:10001000D860186158612E4B002199600221596106
:100020000121F02299502B49196001219960352056
:1000300000F044F80222904214D00621196600F024
:1000400034F8196E01211966002018661A6600F04E
:100050002CF8196E196E196E052000F02FF8012189
:100060000842F9D1002199601B49196000215960AB
:100070001A491B48016001219960EB211966A021F2
:10008000196600F012F800219960164914480160C1
:100090000121996001BC002800D000471248134993
:1000A000086003C880F30888084703B5996A0420EC
:1000B0000142FBD001200142F8D103BD02B5186610
:1000C0001866FFF7F2FF186E186E02BD00000240BE
:1000D000000000180000070000035F00212200005C
:1000E000F4000018222000A00001001008ED00E03C
:1000F00000000000000000000000000074B24E7A12
:1001000000200420F7010010C3010010C5010010F9
:10011000C1010010C1010010C1010010C101001097
:10012000C1010010C1010010C1010010C701001081
:10013000C1010010C1010010C9010010CB01001065
:10014000CD010010CD010010CD010010CD01001037
:10015000CD010010CD010010CD010010CD01001027
:10016000CD010010CD010010CD010010CD01001017
:10017000CD010010CD010010CD010010CD01001007
:10018000CD010010CD010010CD010010CD010010F7
:10019000CD010010CD010010CD010010CD010010E7
:1001A000CD010010CD010010CD010010CD010010D7
:1001B000CD010010CD010010CD010010CD010010C7
:1001C00000BE00BE00BE00BE00BE00BEEFF3058054
:1001D000103800BEF2EB88715C5D01107C5D01108F
:1001E0003402001090A31AE700201F49086006C8D7
:1001F00081F3088810471D48006800282FD10DA4FE
:100200000ECC002902D000F012F8F9E71849194A7B
:10021000002000E001C19142FCD1174988471749ED
:1002200088471749884700BEFDE701C901C29A42C5
:10023000FBD370477C5D0110C000002070190020C6
:100240002C76011000000420000004202C76011000
:10025000001004200010042000000000704709482E
:1002600003F0D2FF0047000008ED00E0000000D0DE
:10027000701900203C270020312F0010390E00108B
:10028000ED2E00105756000006005250ABB36053DD
:10029000D0E5001006005250861C0302E0E5001075
:1002A000060052505422A29DF0E500100500525065
:1002B000DE65F4682C760110F8B5C046064807499B
:1002C000091A8B10C90FC91810B5491003D0044B77
:1002D000002B00D0984710BD701900207019002025
:1002E00000000000054B10B5002B03D00449054861
:1002F00000E000BFFFF7E2FF10BDC04600000000B5
:10030000C424002068D1001010B5064804F0EEFDAA
:10031000054A0649064804F019FE0A2004F0B2FD19
:1003200010BDC046CCD4001068D1001074D10010AC
:1003300080D1001010B5FA20800004F017FE431C95
:1003400001D0C0B210BD0020FCE70000F8B5CE46D9
:10035000474680B58146884601270026002F2AD0CF
:10036000FA20800004F002FE0400C5B20D2D12D068
:10037000082D19D02B00203BDBB25E2BEED8434674
:10038000013BB342EADDFF20204004F07BFD4B46F9
:100390009D550136E2E70A2004F074FD4B469B1997
:1003A00000221A700027E3E7002ED7DD044804F08E
:1003B000CDFD013ED2E73000C0BCB946B046F8BD25
:1003C00098D1001000B583B000230093042101A848
:1003D000FFF7BCFF0028F9D007496A4601A807F0DB
:1003E000D3FF0098FF2802D8C0B203B000BD034875
:1003F00004F0ACFDEAE7C0469CD10010A0D100108B
:1004000000B587B00022002300920193102102A8BA
:10041000FFF79CFF0028F9D004496A4602A807F0BC
:10042000B3FF0098019907B000BDC046CCD10010C1
:1004300000B587B000230193102102A8FFF786FFC3
:100440000028F9D0034901AA02A807F09DFF0198EE
:1004500007B000BDD0D1001010B507290CD8084B4B
:100460001954084B4200981842781F2313404370D8
:1004700049010B43437010BD034804F037FDFAE710
:100480009C0B0020F41E0020D4D1001070B5052A6A
:1004900017D80E4BD4001B191C685D680C4B40002C
:1004A0004618F6009B191C605D600A4B1B185A54D5
:1004B0000949435C0E24A34343545200134343545D
:1004C00070BD064804F012FDFAE7C046C80B0020D4
:1004D000A80B0020A00B0020F41E0020F8D1001073
:1004E00070B584B005000E0014001C4B1B5C002B83
:1004F00031D0002906D0012903D0194804F0F6FCB8
:1005000000E00326174A6800835C70218B43835404
:1005100036013343D9B2815403AB01261E705970A2
:10052000121852789A70002C08D001231943C9B2CE
:1005300003AA517080235B420B4353700A4B595DF1
:100540000A4B186800230093033303AA07F008FA44
:10055000012004B070BD0020FBE7C046F01E002063
:1005600014D20010F41E0020980B0020B8240020A4
:10057000F0B585B00400114B1B5C002B02D10020AC
:1005800005B0F0BD00256B469D730D4F395C0D4ED7
:100590003068009501230E226A4407F0E1F9395DC5
:1005A0003068009502230E226A4407F0E5F96B4695
:1005B000DB89180A1B02184300B2E1E7F01E002095
:1005C000980B0020B8240020F8B506000F0010009A
:1005D00004F042F904000D000C4B7600F619F60009
:1005E0009B19186859680022FC239B0504F0BFF88A
:1005F00002000B002000290004F0B9F8044B9B19FD
:100600001A685B6804F099F8F8BDC046A80B002092
:10061000900E0020F0B585B0002208E0234B0021A9
:100620009954234B5000C1541B1859700132012AB0
:10063000F4DD002403E01D4B00221A550134012C87
:1006400022DC01236A4613731A4F395D1A4E306853
:100650000025009503AA07F083F9395D30680095FD
:10066000022303AA07F088F96B461B7B852BE2D196
:1006700003AB5B78832BDED10C4B01221A550F485C
:10068000210004F063FCD9E7084B1B78002B03D151
:10069000064B5B78002B01D005B0F0BD084804F094
:1006A00025FC084804F022FCF6E7C046F01E0020B6
:1006B000F41E0020980B0020B824002038D200102F
:1006C00058D2001078D2001010B584B004006B46E8
:1006D00019735A73064B186800230093023303AA58
:1006E000210007F03DF9062001F0D4FD04B010BD53
:1006F000B824002030B589B004000292039305AD00
:100700002970082202A91520684404F079FA074BE1
:1007100018680023009309332A00210007F020F90C
:10072000062001F0B7FD09B030BDC046B824002056
:1007300030B587B00400039204AD2970042203A9E8
:100740001120684404F05CFA064B186800230093FB
:1007500005332A00210007F003F9062001F09AFD75
:1007600007B030BDB824002070B588B0050008007F
:1007700011001C0003AE000130701A000D20684407
:1007800004F03EFA631C064A106800220092320010
:10079000290007F0E5F8062001F07CFD08B070BDE7
:1007A000B824002030B585B004006B4619730A4D9B
:1007B00028680123009303AA210007F0D1F82868D4
:1007C00000230093013303AA210007F0D5F86B46FC
:1007D000187B05B030BDC046B824002070B584B089
:1007E000040002AD29700A4E3068012300932A00EC
:1007F000210007F0B5F830680023009308332A0081
:10080000210007F0B9F80298039904B070BDC04602
:10081000B824002070B584B0040003AD2970094EDF
:100820003068012300932A00210007F099F830680E
:100830000023009304332A00210007F09DF8039859
:1008400004B070BDB8240020F0B5D6464F464646E9
:10085000C0B580460D004401E4B2231DDBB29946C9
:1008600019005020FFF7D6FF04F044F906000F00EE
:10087000674A684B03F0C2FF002808D1644A664B00
:100880003000390003F0D0FF002800D17DE0002DBA
:1008900000D072E00023994623000833DBB29A4669
:1008A00019005020FFF7B6FF04F024F906000F00EE
:1008B000574A584B03F0A2FF002807D1544A564B21
:1008C0003000390003F0B0FF002803D0002D5FD1C5
:1008D0000023994626001436F6B231005020FFF767
:1008E00061FF072803D9002D5AD10023994626001D
:1008F0001536F6B231005020FFF754FF072803D910
:10090000002D58D10023994627000C37FFB239003B
:100910005020FFF77FFF061C04F0ECF83F4A404BE5
:1009200003F06CFF002805D13E49301C04F0DCF8D0
:10093000002803D0002D4AD1002399461034E4B298
:1009400021005020FFF766FF061C04F0D3F8334A5D
:10095000334B03F053FF002805D13249301C04F01B
:10096000C3F8002803D0002D41D100239946484602
:10097000E0BCBA46B146A846F0BD00224946502028
:10098000FFF7D6FE0023994686E70123994683E7C1
:10099000002251465020FFF7CBFE0023994699E7ED
:1009A000214B42465200D25C31005020FFF78CFEB2
:1009B000002399469BE71C4B424652009B185A78ED
:1009C00031005020FFF780FE002399469CE7174B2B
:1009D000424612019B181868596803F0ADFF021CCB
:1009E00039005020FFF7A4FE00239946A6E70F4ADE
:1009F00043461B01D2189068D16803F09DFF021C8A
:100A000021005020FFF794FE00239946AFE7C0462F
:100A10009A9999999999B9BF9999B93F7B14AE4719
:100A2000E17A843F00007A44A00B0020900E002061
:100A300010B5324B1B78012B08D9314804F056FA17
:100A4000304B1B68002B09D000241AE02E4804F01C
:100A50004DFA2A4A137801331370EEE72B4804F05D
:100A600045FA2B4804F042FAEEE72A4B6200D15CCB
:100A70005020FFF797FE0100274B180004F066FA9C
:100A800001340B2C2FDC620012191201234BD218F7
:100A900023482100613104F059FA224B1B5D002BE1
:100AA000E3D0012B05D0022B11D01F4804F01EFA11
:100AB000E6E7184B6200D15C5020FFF7ABFE04F074
:100AC00019F802000B00194804F040FAD8E7114B5E
:100AD0006200D15C5020FFF781FE02000B0013483A
:100AE00004F034FACCE7124804F000FA114804F09C
:100AF000FDF9114804F02AFA10BDC0463127002044
:100B00005CD400108C0E0020C4D2001074D40010ED
:100B10009CD40010080C0020C8D40010200C002029
:100B2000BCD40010600E0020D8D40010D0D4001027
:100B300008D500102CD5001038D5001030B585B080
:100B40000500002304E0FF226946CA540133DBB2EA
:100B50000F2BF8D90024072C08D810236A4621004F
:100B60002800FFF701FE0134E4B2F4E705B030BD20
:100B7000F0B583B0FFF75CFF39E0674804F0B6F9E1
:100B800003B0F0BDFFF754FF31E0644804F0AEF964
:100B90005020FFF7D3FF624804F0A8F9614804F041
:100BA000D5F924E0604804F0D1F920E0FFF70AFC11
:100BB00005005E4B6200D15C5020FFF7F3FD04009E
:100BC0005B48210004F0C2F9A54242D059482900EF
:100BD00004F0BCF9554B7F00F95C2A005020FFF768
:100BE00073FD4F4804F082F94E4804F0AFF9FFF767
:100BF000A1FB0400051EFAD04F48210004F0A6F91D
:100C0000782DBAD02300203B5A42534122000A3AA1
:100C100051424A41134322000D3A51424A41D2B255
:100C2000002BAFD1002AADD15A2DAED0613C2700A8
:100C30000B2CB7D8414804F089F9414B1B5D012BBF
:100C40003BD0022B09D0002BB0D03E4804F04EF927
:100C5000CAE73D4804F04AF9C6E7FFF7D1FB009028
:100C60000191324B6200D15C5020FFF7B7FD0400C8
:100C70000D00364822000B0004F068F922002B001A
:100C8000009C019D2000290003F0B0FD002810D138
:100C90002F4822002B0004F059F9244B7F00F95C07
:100CA00022002B005020FFF725FD1D4804F01EF9FF
:100CB0009AE7254804F01AF996E7FFF7B9FB051CF7
:100CC0001A4B6200D15C5020FFF7A4FD041C03F016
:100CD00011FF02000B001F4804F038F9211C281CEA
:100CE00003F0FAFE002812D1281C03F003FF0200D3
:100CF0000B00194804F02AF90C4B7C00E15C2A1C1B
:100D00005020FFF715FD064804F0F0F86CE70E4898
:100D100004F0ECF868E7C04654D5001068D5001020
:100D20007CD5001038D5001084D50010080C0020A8
:100D3000B8D50010D8D5001050D50010A4D500109B
:100D4000600E002068D60010ECD5001000D6001010
:100D500020D6001034D6001054D6001070B51B20D9
:100D600000F02CF9D024240680231B05A362002266
:100D700001211B2000F008F9152000F01FF9802345
:100D80009B03A36200220121152000F0FDF8636897
:100D90001B0104D563689B0202D4022500E00125F3
:100DA000280070BD10B50138012800D910BDFFF72B
:100DB000DFFEFBE710B51A4C1A4B23601A480722D6
:100DC000062104F0C3F82068184906F09DFD0321B0
:100DD000062000F0C1F80321072000F0BDF8002232
:100DE0000121062000F0D0F800220121072000F0A8
:100DF000CBF8FFF70FFC002400E00134012C0DDCE0
:100E00000B4B1B5D002BF8D0E0B20121FFF71CFD5E
:100E10000028F2D1074B00221A60EEE710BDC04651
:100E2000B8240020980F002084D60010A08601006E
:100E3000F01E00208C0E0020F0B5D6464F464646E8
:100E4000C0B58CB004F08EF8FFF788FF06003D486F
:100E500001F020FAFFF758FAFFF7ACFF00240FE08B
:100E6000E5B204212800FFF7F7FA0222002128004A
:100E7000FFF70CFB022201212800FFF707FB0134DA
:100E8000012CEDDDF0B2FFF78DFF59E0E5B2012254
:100E900029000020FFF724FB012229000120FFF791
:100EA0001FFB294B1A78294B9200D05801F0F2F918
:100EB000052001F0EFF90020FFF75AFB0AAD6300AF
:100EC000E8520120FFF754FBA31C5B00E8520134F9
:100ED000012CDBDD002400E00134012C2CDC1C4B58
:100EE0001B5D002BF8D0E3B20AAA9146A2009246FD
:100EF0004A4651468A5E002198461800FFF764FB77
:100F000006000F00230102AAD5182E606F604B4621
:100F1000534402229A5E01214046FFF755FB02002E
:100F20000B00AA60EB600B480092019332003B007B
:100F3000210004F00BF8CFE7FA20400001F0AAF9F5
:100F40000024C5E7B80B00009C0B00206C0E0020AD
:100F5000F01E0020B0D6001010B58300084A944659
:100F600063441A6840246240803414408022520155
:100F700013431C60C000034B9C466044416010BD9D
:100F800004C001400040014080000B4B9C4660447F
:100F900000290DD00823002A0CD004221343026834
:100FA00053400C221A4080235B0103431A607047B0
:100FB0000023F0E70022F1E704C0014010B501234F
:100FC0008340D0221206936293610521FFF7C4FF8C
:100FD00010BD0000034B1B6802201840431E9841BF
:100FE000C0B2704700C00640EFF3108072B6034BEA
:100FF0001B68002BFBD0BFF35F8F70472C0100D024
:10100000BFF35F8F024B00221A6080F31088704795
:101010002C0100D0F8B506000C001500FFF7E4FF26
:10102000E308F718F15C07222240012393400B42AA
:1010300005D1DBB20B433B70FFF7E2FFF8BD2100A7
:10104000280001F0F1FFF0B583B006000191140013
:101050001F00FFF7C9FF00E00134BC420CD8E308D1
:10106000F518F35C0721214001228A401A42F3D18E
:10107000D2B21A432A7001E001246442FFF7C0FF94
:10108000002C02DB200003B0F0BD019B002BF9D047
:10109000089801F0C9FF0000002307E0054A9A18EC
:1010A0009200BFF35F8F0021116001331F2BF5D930
:1010B0007047C04640000034054A1078431CDBB23C
:1010C0001370172B02D9130010221A707047C046F4
:1010D000B00E002010B582B00100054C054B009306
:1010E0001F2318222000FFF7AEFF02B010BDC0463C
:1010F00010200020D8D60010074B9B6810308000CD
:101100001950BFF35F8FBFF35F8F044B002119604D
:1011100082F310887047C04600ED00E0240100D043
:1011200010B5091A0B1F0A4A94466144094A9142B4
:1011300008D8DA0706D45B105B055B0D0648184338
:1011400080B210BD054B064A0648A32101F0D2FE2D
:10115000FC070000FE0F000000E0FFFFF4D60010C7
:101160005CD9001024D7001010B5091A04394A08B8
:10117000090B08D14905490D064B0B430380064B6B
:101180001343438010BD054B054A0648AB2101F0CF
:10119000B1FEC04600F0FFFF00F8FFFF64D700106B
:1011A00030D9001024D7001001238340034A10686F
:1011B0001840431E9841C0B27047C04600E100E0AD
:1011C000002904D0034B1860034B18607047034B91
:1011D0001860FBE780E200E000E100E080E100E071
:1011E00010B5012383401800FFF7EAFF10BD00008F
:1011F00001238340014A13607047C04600E200E0CB
:10120000024B9B6810308000C058704700ED00E032
:1012100010B5FFF7F5FF002805D0054BC01A2F28A1
:1012200003D8012010BD0020FCE70020FAE7C046EB
:10123000B40E002070B504000D00EFF3108672B6F6
:101240000C4B1B68002BFBD0BFF35F8F2000FFF718
:10125000D7FF094B984201D0A84205D1320029009E
:101260002000FFF749FF70BD044B054A0548862161
:1012700001F040FE240100D0CD01001074D7001011
:1012800090D9001024D70010F0B5DE4657464E46E0
:101290004546E0B589B0814601911500EFF3108A0B
:1012A00072B6734B1B68002BFBD0BFF35F8F714B83
:1012B0000027DF57002F40DB7C00E419A4006E48B4
:1012C00024180622A2566B4B1A706C4B9A684B4638
:1012D00010339B00D35898461E00181A2F2838D96F
:1012E000674B98452FD105AE664B338066497B002E
:1012F0009B46D8198000604B984640440230FFF767
:101300000FFF7080614BB380FF23B371F571019BB8
:1013100007935F44BB00434407CE07C301231C432C
:10132000A046524641464846FFF7E6FE09B0F0BCEB
:10133000BB46B246A946A046F0BD554B554A564855
:10134000D72101F0D7FD554B524A5348DE2101F019
:10135000D1FD01380C2102F0ABFF002912D101238D
:101360009E43B34633000026DA79AA4211D90621FA
:10137000595600290CDB4A00521892003E491E00C3
:101380008B18F1E7464B434A4348EA2101F0B2FD8E
:101390001E00002E3AD005AB424A1A80813A5A808C
:1013A0000623F3560293002B17DA3F4805AB9B4602
:1013B0009880029A9A71DD71019A0792301D21007E
:1013C000FFF7AEFEB080B7712B4B7A00D2199200B6
:1013D0009B185A4613CA13C3A3E77800C0198000AC
:1013E000254BC0180430311DB388DA0A1C2A07D1F6
:1013F0005B055B1502335B00C918FFF791FED5E76B
:101400002A4B2B4A2448B12101F074FD05AE1D4B37
:1014100033801D497B000293DB199B00164A9046DE
:101420001A0042440392901CFFF77AFE7080039AE0
:10143000101D5946FFF774FEB0801E4B5A464146B8
:10144000521A524153431B0DB371F571019A079221
:10145000029B9C466744BB00434407CE07C3114B25
:101460005A461380813B538001231C43A04658E712
:10147000240100D032270020B40E002000ED00E04F
:10148000CD01001000A1FFFFE40E002001BDFFFF11
:10149000ACD7001078D9001024D70010D4D7001092
:1014A000FCD700100148000001BD000070D80010FA
:1014B00068D90010AAAA0000F0B5CE46474680B50C
:1014C00083B006000D00EFF3108872B6554B1B6811
:1014D000002BFBD0BFF35F8F534B9A68340010345E
:1014E000A300D758514B9F4207D0AF4200D196E09E
:1014F00001974F4BFB1A2F2B09D942463900300078
:10150000FFF7FAFD03B0C0BCB946B046F0BD3000ED
:10151000FFF74AFE814600213000FFF761FEBFF36E
:101520005F8FEFF30581002901D08C4211D1012397
:10153000019C9C430020A368AB4212D00622A25615
:10154000002A0DDB53009B189B00394A2000D41859
:10155000F1E7384B384A36213848FF3101F0CAFCF0
:101560002000AB4254D106256557002D36DB304BA9
:101570006A00521992009B189A68A260DA79E271A7
:101580009B795BB2A371002B0FDA2D48A080284B0A
:101590006A00521992009B182A4A117899711570A5
:1015A00049463000FFF71CFEA7E7201D6B005B19C2
:1015B0009B001F4A9B18191D9B88DA0A1C2A07D119
:1015C0005B055B1502335B00C918FFF7A9FDDDE77A
:1015D0001D4B1E4A1948B12101F08CFC002912D183
:1015E00000280ED0FF238371194B838015490B7897
:1015F000A3710F4A174BA41A644163431B0D0B7070
:10160000CEE70A4FF2E71449201DFFF7ADFDC7E70B
:10161000124B094A6A210948FF3101F06BFC034F64
:101620006BE7C046240100D000ED00E0CD010010C2
:10163000B40E002088D8001048D9001024D700101C
:1016400001BD00003227002070D8001068D90010BA
:1016500001BDFFFFAAAA0000EE0E0020BCD80010BA
:1016600070B5012202432E4BD31A2F2B28D8EFF34B
:101670000583002B2BD0EFF3108C72B62949096833
:101680000029FBD0BFF35F8F254C274905002D1B98
:101690006D416943090D4CB2244989689B00C958C2
:1016A00091421BD00021032932D81D4B4A00521809
:1016B00092009B189B795BB2A3421FD00131F2E7E5
:1016C0001B4B1C4AC7211C48490001F013FC1B4B53
:1016D000184A92211848FF3101F00CFC134A926815
:1016E0001749D150174B1A7882711C70BFF35F8F66
:1016F0000C4B00221A608CF3108870BD084B4A0016
:101700005518AD005D19FF26AE710F4AAA80E9E7B2
:101710000E4B084AD1210848490001F0EBFBC046B6
:10172000B40E0020240100D0AAAA000000ED00E0C1
:10173000C4D8001014D9001024D70010ECD8001021
:10174000CD0100103227002001BDFFFF70D2001034
:101750000022044B02E0044902C30132072AFAD9ED
:101760007047C04600E400E08080808010B582B001
:101770000100074C074B0093052300222000FFF7D0
:1017800062FC002801DB1F23181A02B010BDC046FE
:1017900038270020F8D80010024B9C46614489008D
:1017A000016070474000003410B50400FFF784FC6E
:1017B00001002000FFF7F0FFFF232371BFF35F8FCD
:1017C00010BD10B50400FFF777FC01002000FFF703
:1017D000E3FFFF23237100236371BFF35F8F10BD0D
:1017E000034B9C46614489000160BFF35F8F7047E3
:1017F0004000003410B504000120FFF76BFC01002D
:101800002000FFF7EDFF10BD70B505000C000800CB
:1018100000F0F2FE0949200000F032FEFFF74CFC18
:10182000074B9C466044800068602C75D0231B06E3
:101830001B786B75034BA400E55070BD3D1B001079
:1018400040000034E42400200A4B1A68EFF31081B2
:1018500072B61368002BFCD0BFF35F8F054B1B687B
:10186000BFF35F8F00221A6081F3108840BF002011
:10187000002170470027002010B5002920D0036800
:101880001B7B99421CD88368154CA446614409010E
:101890005B181C685968002A18D003681B7B9A42A1
:1018A00014D883680E488446624412019B181A6853
:1018B0005B6801208B4201D80ED00020C0B210BD61
:1018C000084B094A09483C2101F014FB054B064A24
:1018D00006483C2101F00EFBA242EFD8EDE7C046DE
:1018E000FFFFFF0F2CDB001090DD0010F0DA00107E
:1018F00010B500291DD0037B99421AD804684B000B
:101900005B18033BE418002919D0002A1DD091422E
:1019100021D0002A25D0037B9A4222D800685300A8
:101920009B18033BC3189970217800291FD122709E
:1019300010BD104B104A1148682101F0DBFA104B22
:10194000104A0E486F3101F0D5FA0F4B0D4A0B4883
:10195000702101F0CFFA0D4B0A4A0848712101F0BD
:10196000C9FA044B044A0548682101F0C3FA5970CA
:101970002270DDE750DB0010FCDD00106CDB001096
:10198000B8DB0010D8DD0010C4DB0010D0DB001085
:1019900070B506000D001400002914D0002A14D0E0
:1019A000436880689847002806D02200290030004C
:1019B000FFF79EFF280007E02A0021003000FFF714
:1019C00097FF200000E0100070BD0800FCE7000059
:1019D000F0B583B00500009201930AAB1C780BAB05
:1019E0001F78002C26D003685A7B944207D101232C
:1019F000002B19D1002C3AD1200003B0F0BD002CEF
:101A00000CD01A7B944209D81A6863001B19033B57
:101A1000D3189B78002BEBD00123E9E73C4B3D4AE0
:101A20003D48682101F066FA3C4B3D4A3D4867213C
:101A300001F060FA03689C7B002CDBD011D01A7B8C
:101A400094420ED81A686100091903395218517866
:101A50009973002900D1D9730023937053701370C8
:101A6000C8E72B4B2B4A2C48682101F043FA002C85
:101A700037D02B681B7B9C4233D8AB682A4AA2180C
:101A800012019B18009A1A60019A5A60089A9A608B
:101A9000099ADA602E68002C29D02ED0337B9C4224
:101AA0002BD8336862001219033A9B1800229A70EF
:101AB0005A701A70717B22003000FFF769FF707353
:101AC000844299D1287D009A019B00F021FD061ED9
:101AD00001D0002F17D00C9B002B00D18CE71E707B
:101AE0008AE7124B124A0F483C2101F003FA114BCE
:101AF000114A0948A52101F0FDF9054B054A0648A0
:101B0000682101F0F7F92868210000F031FFE2E7D1
:101B100050DB0010FCDD00106CDB0010E8DB001077
:101B200008DE0010F0DA0010FFFFFF0F2CDB0010C2
:101B300090DD0010ECDA0010ECDD0010F0B5DE46B0
:101B400057464E464546E0B58BB0099000230893B2
:101B5000B54B8200D55854E0B44BB54AB5483F2147
:101B600001F0C8F9B44BB54AB5483C2101F0C2F9BF
:101B7000002F01D1002E6BD1002100F0EFFEA0421A
:101B80001CD143461A685B680692079343469B68DC
:101B90009A464346DB689B465346002B14D0002CE4
:101BA00018D02B681B7B9C4214D8EA68631ED35C58
:101BB00008931B0218432861002015E0A14BA24A9C
:101BC0009F488E2101F096F9A04B9F4A9C48922194
:101BD00001F090F9984B9E4A9948412101F08AF909
:101BE00000239B469A4600206B68BFF35F8F00225C
:101BF0001A6089F310885346002B33D1002800D196
:101C00000BE100F0F9FB02000B1EA5DB0020002118
:101C1000069007916868EFF3108972B60168002991
:101C2000FCD0BFF35F8F2868447B002CD8D099D0BC
:101C3000017B8C4296D8AE68864961180901B0468E
:101C4000884441460E684F68B61A9F41002F8FDDC9
:101C500043461A685B68099800F05AFC00239B46CB
:101C60009A46C1E7089B1B02234398465946180031
:101C7000D04706000F006A68EFF3108972B6136848
:101C800059424B41D9B2002BF9D1BFF35F8F002FDE
:101C90001EDB002F46DD2B69002B47D043456DD15D
:101CA00000F0AAFB02000B1E6EDB92197B41002B99
:101CB00070DB002B72DB002104910131039102944F
:101CC00059460191514600912800FFF781FE4CE0F2
:101CD0002B69002BDDD0434514D1069A079B921B3C
:101CE000BB41002B14DB002B16DB002104910131DA
:101CF0000391029459460191514600912800FFF743
:101D000067FE32E0544B504A4D48A12101F0F2F8F1
:101D100001225242514BE6E7444B454A45483F2198
:101D200001F0E8F8002F01D1002EB4D12B68002C6F
:101D30004FD05A7B944237D10121002949D1DA7B17
:101D4000002A4CD19A7B002A03D1DA7B002A58D191
:101D50009C73DC73002C5AD02B681B7B9C4256D89A
:101D6000EA68013C135D0133135500232B616A6857
:101D7000BFF35F8F136089F3108842E7364B324A16
:101D80002F48A42101F0B6F8284B294A29483F21C1
:101D900001F0B0F801225242304B8AE7234B244A2B
:101DA00024483F2101F0A6F8002C0CD01A7B944265
:101DB00009D8186862001219033A82189278002A2A
:101DC000BBD00121B9E7264B264A2748682101F0FC
:101DD00091F8264B264A2448F62101F08BF8002A78
:101DE00009D0197B8A4206D8186851008A18033A2C
:101DF00082185470A6E71A4B1A4A1B48682101F052
:101E000079F81C4B1A4A1848FB2101F073F80A4B69
:101E10000F4A0B48412101F06DF80BB0F0BCBB46F6
:101E2000B246A946A046F0BDE424002004DA001022
:101E30005CDD001020DA00102CDB001090DD0010BB
:101E4000F0DA001010DC001074DD001028DC001047
:101E5000B4DD0010FFFFFF0F34DC0010FFFFFF7F39
:101E600050DB0010FCDD00106CDB001070DC00109B
:101E7000C8DD001094DC001010B50C4B5B68002B23
:101E800004D00B480A21FFF787FC10BD074C094A14
:101E900020682300102100F077FC032000F0A0FA56
:101EA00003212000FFF7B0FCEBE7C046FC0E00204A
:101EB000002700207918001010B5064B5B68002B36
:101EC00001D0044810BD044B044A05485E2101F0CE
:101ED00011F8C046FC0E0020A8DC00109CDD0010AC
:101EE000F0DA0010F0B5DE4657464E464546E0B5FE
:101EF0008BB0804616001F00149B9A46159B99468E
:101F000016AB1B789B461F2302AA9446634400220B
:101F10001A702DE0002809D042461268127B9042C8
:101F200004D84246D168421E8A5C43E0414B424A93
:101F30004248412100F0DEFF07984EE0361BAF41DA
:101F4000002F07DB002F13DA3D4B3E4A3E483F216E
:101F500000F0D0FF012676423C4FF3E7384B394A78
:101F600039483F2100F0C6FF002D51DB26002F002D
:101F700043465A68EFF3108472B6136859424B41D6
:101F8000D9B20791002BF8D1BFF35F8F1F3302AA9C
:101F90009446634404930023039302934B460193B6
:101FA0005346009332003B004046FFF711FD031EED
:101FB000B0D1020041464968BFF35F8F00250D6034
:101FC00084F31088002B29D01F2302A98C46634478
:101FD0001B78002BB0D112021043002B20D05B469F
:101FE000002B1DD04946D04704000D0003000B43D1
:101FF0001DD00029A2DB00F0FFF902000B1EADDBB3
:10200000A4185D41002DAFDA012464420F4DABE707
:102010000B4B0C4A0C483F2100F06CFF0120404262
:102020000BB0F0BCBB46B246A946A046F0BD07982F
:10203000F6E7C0462CDB0010B4DD0010F0DA00102B
:1020400004DA00105CDD001020DA0010FFFFFF7FD3
:10205000F8B504004268EFF3108572B61368584271
:102060004341D8B2002BF9D1BFF35F8FCBB22268C6
:10207000567BB3421BD10120002847D020698842FB
:102080002AD0090AC9B2002B2DD02068007B8342D8
:1020900029D8E668581E305C88422AD00020636840
:1020A000BFF35F8F00221A6085F31088F8BD002B04
:1020B0000CD0167BB34209D817685E00F618033EB1
:1020C000BE19B678002ED7D00120D5E7124B134A9F
:1020D0001348682100F00EFF124B134A9521134854
:1020E000490000F007FF124B124A1048412100F04E
:1020F00001FF1900100000F03BFC0028CFD10E4B6F
:10210000094A32210948FF3100F0F4FE23698B426D
:10211000C5D100232361C2E750DB0010FCDD0010B5
:102120006CDB0010CCDC001044DD0010F0DA001095
:102130002CDB0010B4DD0010F0DC0010407D704797
:10214000F0B587B006000F00EFF30583002B1FD119
:1021500006246442E517A4197D418D4202D803D1BB
:10216000844201D900240025002D14DB0494059538
:1021700000F042F902000B1E13DBA41A9D41002D52
:1021800017DC14D03000390000F042F907B0F0BD80
:10219000234800F049FF234B234A24483F2100F005
:1021A000A9FE204B204A21483F2100F0A3FE002C2D
:1021B000E8D0FFF781FE0023029301931C4B0093AC
:1021C000049A059BFFF78EFE002818DADAE7002351
:1021D00000E00023002BD5D1164B1A68EFF31081D5
:1021E00072B61368002BFCD0BFF35F8F114B1B68D6
:1021F000BFF35F8F00221A6081F3108820BF04991B
:10220000059A0D4B5B6A9A42E3D80B48806A884274
:1022100003D29A42DBD00123DCE70123DAE7C04690
:10222000F4DC001004DA00105CDD001020DA00108D
:1022300049180010002700200040054070B5040038
:102240000D0000F0D9F802000B1E0ADB2000290067
:102250008018594100290ADB00290CDBFFF770FFC9
:1022600070BD084B084A09483F2100F043FE012099
:1022700040420749F0E7034B034A04483F2100F07E
:1022800039FEC04604DA00105CDD001020DA0010D0
:10229000FFFFFF7F10B5FA2292000023002102F019
:1022A000D9FBFFF7CBFF10BD70B584B005000C0063
:1022B000EFF30583002B1ED1FFF7FEFD00230293F1
:1022C0000193224B00932A002300FFF70BFE061E0A
:1022D00023DD20BFFFF7F0FD3100FFF7B9FE1C4BF7
:1022E0005B6A9C422DD81A4A926AAA422CD29C421E
:1022F00025D0012026E0164B5B6A994209D8144A82
:10230000926A824207D2994201D001201AE000204D
:1023100018E0002016E0012014E00D4B5B6A9C429F
:1023200009D80B4A926AAA4207D29C4201D00120E6
:1023300008E0002006E0002004E0012002E0002088
:1023400000E0002004B070BD0120FBE74918001038
:102350000040054070B5EFF305801038EFF3108CA6
:1023600072B6194B1B68002BFBD0BFF35F8F0122A5
:102370001300834015494B6315490B6015490978D3
:102380000C00C440224213D0104A546A124A8500FD
:10239000AA58944205D3114AAA580E4C9943217069
:1023A00007E00A4A031D9B0099589950002200E05B
:1023B0000022BFF35F8F044B002119608CF310885B
:1023C000002A00D0904770BD280100D00040054091
:1023D0003C700540372700200C270020F81E002005
:1023E00010B50100024A034B1800FEF713FE10BDA2
:1023F00020DE001030270020044B5B6A034A906AFD
:102400001900536A9942F9D17047C046004005400F
:10241000084B5B6A01E0074B5B6A8B42FBD301E030
:10242000044B5B6A8B4203D1024B9B6A8342F7D316
:102430007047C0460040054070B504000D00FFF72E
:10244000DBFF02000B0020002900801859418B425D
:1024500002D804D1824202D901204042C11700298A
:1024600002DBFFF7D5FF70BD024B034A03483F2153
:1024700000F040FD04DA0010C8DE001020DA001081
:1024800070B504000E00EFF3108572B61B4B1B688D
:10249000002BFBD0BFF35F8F002E1CD02000FEF777
:1024A000AFFE174B83420BD019002000FEF7C2FE8F
:1024B00001212000FEF794FE0123A340114A13607E
:1024C000114BA400E650BFF35F8F0C4B00221A6043
:1024D00085F3108870BD0C4BA2000021D150012261
:1024E000A2400A490B7893430B7005492000FEF780
:1024F000E3FF00212000FEF773FEE4E7280100D08F
:102500005523001038600540F81E002037270020B2
:10251000F0B5DE4600B584B00400150001921E003F
:102520000293FFF769FF03958E4202D84ED1854290
:102530004CD9EFF3108B72B6274B1B68002BFBD0E6
:10254000BFF35F8F254A17780125A540EBB23B43C7
:102550001370234B5D63221D92000199D150214AD3
:10256000A100029888501B6A2B4212D11C4B1B6C95
:102570002B4208D00020BFF35F8F174B00221A6058
:102580008BF3108823E0184B184A1948C52100F036
:10259000B1FCFFF731FF8E4214D802D1039B834276
:1025A00010D80E4B1B78BB420ED00D4B1D625D63E5
:1025B0001F222240012393400E4A1360074B1F70D5
:1025C0000120D8E70020D6E70120D4E7012004B09D
:1025D00080BCBB46F0BDC046280100D03727002094
:1025E000004005400C27002044DE0010ACDE001047
:1025F00068DE001080E200E0EFF3108C72B60B4B47
:102600001B68002BFBD0BFF35F8F01238340084A78
:10261000136208490A789A430A70BFF35F8F034B2D
:1026200000221A608CF310887047C046280100D041
:10263000004005403727002010B500291DD0037B3E
:1026400099421AD804684B005B18033BE418002930
:1026500019D0002A1DD0914221D0002A25D0037B19
:102660009A4222D8006853009B18033BC318997004
:10267000217800291FD1227010BD104B104A11483B
:10268000682100F037FC104B104A0E486F3100F003
:1026900031FC0F4B0D4A0B48702100F02BFC0D4B09
:1026A0000A4A0848712100F025FC044B044A0548F9
:1026B000682100F01FFC59702270DDE750DB00102C
:1026C000D0DF00106CDB0010B8DB0010BCDF0010A6
:1026D000C4DB0010D0DB001070B506000D00140044
:1026E000002914D0002A14D0436880689847002835
:1026F00006D0220029003000FFF79EFF280007E0E7
:102700002A0021003000FFF797FF200000E01000B2
:1027100070BD0800FCE7000010B5002343730133CF
:102720008373037BC3730123027B9A4213D9002B6B
:102730000BD0027B934208D801685A00D218033AA2
:102740008A180133DBB25370EEE70C4B0C4A0D488C
:10275000682100F0CFFB002A09D0924207D8016817
:1027600053009B18033BCB1800225A7010BD034B3B
:10277000034A0448682100F0BDFBC04650DB00104E
:10278000D0DF00106CDB001010B501734260836075
:10279000FFF7C2FF10BD000070B50400081E00D195
:1027A00070BD002931D0237B99422ED822684B007E
:1027B0005B18033BD3185A78002AF1D02BD0237B27
:1027C0009A4228D8216853009B18033BCB185D78A8
:1027D00000215970002824D0237B984221D82168F9
:1027E00043001B18033BCB18002159700100200047
:1027F000FFF772FF060029002000FFF7CDFF02005F
:1028000031002000FFF768FFCAE7094B094A0A4870
:10281000682100F06FFB064B064A0748682100F06C
:1028200069FB034B034A0448682100F063FBC04680
:1028300050DB0010D0DF00106CDB001070B505001D
:102840000C00160000292ED033D0037B994230D8DB
:1028500003684900091903395B185A78002A2ED1F8
:102860009A78002A31D11978FFF796FF0300002EDD
:102870000AD0EA7B002A2ED1AA7B002A03D1EA7B68
:10288000002A3AD1AC73EC73002B3CD1002C4DD014
:102890002B7B9C424AD82A6863001B19033BD31840
:1028A00000225A7070BD244B244A2548382100F07C
:1028B00021FB244B244A2548682100F01BFB244BB4
:1028C0001E4A1F483A2100F015FB224B1B4A1C48A8
:1028D0003B2100F00FFB002A09D0297B8A4206D851
:1028E0002E6851008A18033AB2185470C4E7154B89
:1028F000154A1648682100F0FDFA174B0F4A104898
:10290000422100F0F7FA002B0AD02A7B934207D825
:102910002A6843001B18033BD31800229A70B5E7BE
:10292000084B094A0948682100F0E4FA054B064AB9
:102930000648682100F0DEFAE0DE0010A8DF001093
:10294000E8DE001050DB0010D0DF00106CDB001060
:1029500024DF00104CDF001094DC001070B5040080
:102960000A00457B2900FFF769FF6073280070BDEE
:1029700070B50400002966D0437B8B420ED000293D
:1029800011D0037B99420ED805684B005B18033BBE
:10299000ED18AB78002B0CD1002055E00121FFF79A
:1029A000DDFF012050E0294B294A2A48682100F028
:1029B000A1FA002B1FD0027B93421CD800685A005A
:1029C000D318033BC218C35C8B421AD0002B1BD018
:1029D000227B934218D820685A00D318033BC018B2
:1029E00043788B4216D0002BF0D11B4B1B4A1C485E
:1029F0006B2100F07FFA154B154A1648682100F04C
:102A000079FA6B78137007E0104B114A114868216E
:102A100000F070FA6B7843700023AB706B7001228A
:102A20002000FFF70BFF0200617B814205D02000F0
:102A3000FFF752FE6073012006E00A4B074A084880
:102A4000712100F057FA002070BDC04650DB001025
:102A5000D0DF00106CDB001070D2001090DF00108F
:102A6000E8DE001070DF0010F8B5DE4657464E462F
:102A70004546E0B506000F0015000A9A93424ED372
:102A80001A0E92461B0298460A9A00234046514667
:102A900001F04CFC81467400A419A4002E4B9C4606
:102AA00064446368834200D26060331FDBB29B469C
:102AB000012B3AD9C0239B012343802212011A60C3
:102AC000264BB200D158002905D0586901F0F0FB1F
:102AD00001300138FDD16D0123685D40E0222A40BC
:102AE00080235B0123431A605A46012A28D9802398
:102AF0009B012343802212011A604B4663604A46C1
:102B000000234046514601F011FC144BB600985189
:102B10000120F0BCBB46B246A946A046F8BD104B0A
:102B2000104A11482D2100F0E5F9012FC2D1C02330
:102B30009B01234303221A60A368DB07FCD5CAE785
:102B40002168794003220A401A60A3680125BD402C
:102B50001D42FAD0CBE7C046008000401420002080
:102B6000DCDF001038E00010F0DF001030B583B07B
:102B70000C2000F017F9FEF72DFA00280DD00023E5
:102B800004E02E4A99002E4888500133092BF8D9C9
:102B90002A4B2C4A5A6203B030BD2B4B00229A6755
:102BA00000F072F9294B01221A60274B5B6C012B54
:102BB000FBD1274B03221A60234B9B6B012BFBD1CC
:102BC000013300930433234A0121234800F054F8D1
:102BD00005230093214A0121214800F04DF8214BA3
:102BE0000093002202210420FFF73EFF1E4D0095B6
:102BF0002B00002201210520FFF736FF104C009426
:102C00002300002200210720FFF72EFF009423005D
:102C1000002200210820FFF727FF0A4B0093230022
:102C2000002200210920FFF71FFF00952B00002242
:102C300000210620FFF718FFADE7C0461420002052
:102C4000006CDC021BB70000008000403CB000407C
:102C500030B00040002F685900800240008C864749
:102C600000C00240001BB70040597307014B8000B1
:102C7000C058704714200020F0B5C64600B50400C7
:102C80000D00170098460C2001F012FB0600394B8E
:102C9000FA18394B9A4241D843011B1A9901C91AB3
:102CA000C90009188901380001F002FB0200103A3E
:102CB00098235B009A4237D84346013B062B39D80C
:102CC000069B013B062B35D83F09B74238D3434614
:102CD0001E04069B1B031E432368002B36DB274B79
:102CE0009C4244D080235B01254A1360254A13602F
:102CF000254A926819009143FAD12560A060221DEF
:102D0000C0239B01134321221A602268002AFCDAA7
:102D1000E66008221A6080BCB846F0BD1B4B1C4A16
:102D20001C48112100F0E6F81B4B194A19481921DB
:102D300000F0E0F8194B164A16481C2100F0DAF8AA
:102D4000174B134A1348232100F0D4F822683F237D
:102D50001340AB42C3D1A3681B051B0D8342BED1F8
:102D6000E368EE22D2021340B342B8D1D3E7802306
:102D70009B01B9E780E84BD380F8A93200C002403C
:102D800000E0004000F0004000C0004048E00010BB
:102D90006CE10010A8E00010E8E0001004E1001071
:102DA00050E1001080239B000343014AD362704727
:102DB00000800540024B1A68024B5A607047C046BB
:102DC000BC2400200080054010B50200164B802076
:102DD000C0051860154B1648186000290AD0154B1D
:102DE000E021C9041960002A09D1124B8022120681
:102DF0001A6010BD0C4BE021C9041960F3E75301C0
:102E00009B1A9800801800010B4B186080235B040C
:102E1000984202D3084B094A1A60FFF7CBFF054BD3
:102E20008022D2051A60E4E700B005400820014086
:102E3000FCFF010000A00540BC240020FFFFFF00B4
:102E400010B5030010000C4A8024E4051460002B28
:102E50000DD001221343094A094CD461094C5C404E
:102E60001462516293620021FFF7AEFF10BD034B65
:102E70000022DA61F7E7C04600B005400080054057
:102E8000D3C007B02D3FF84F064BAA2212011A609B
:102E90002F22DA60044B054A1A60024B5B68002B54
:102EA000FBDA7047004002400060024000B0FA00C8
:102EB00000BEFDE703000A4A1268002A08D0084A4B
:102EC0001068C318074A9A4206D3054A1360704730
:102ED000034A05491160F2E701204042F7E7C04686
:102EE000B4200020000004203C27002010B5FFF78C
:102EF000DFFF000030B583B00D001900002A0DD0AF
:102F0000084B002A0CD0084C019200932B000200C1
:102F1000200002F01BF80120FFF7CAFF034BF0E787
:102F2000024AF0E778E1001088E1001084E1001027
:102F300070B52B4B2B4A1A602B4B2C4A1A602C4B2A
:102F40009A682A4B9343FAD12A4C01E008CC98475F
:102F5000294B9C42FAD3FFF709FE234B274A1A60FC
:102F6000234B9B68DB43DB01FAD1254B40229A6758
:102F70005A671A67DA66234C09E0234B234A244830
:102F80008621FFF7B7FF2000FEF70EFC0834214B27
:102F90009C4209D22368002BF5D0012BEDD12000F3
:102FA000FEF70FFC0834F2E71B4DA9681B4CC0224A
:102FB000200001F025FEAC60EFF30583002B00D06C
:102FC00000BEFEF769F8FEF7C3FBFEF755FF144C91
:102FD00001E008CC9847134B9C42FAD370BDC04621
:102FE00000E00040BFCDFBFE00F00040FE7F3C0053
:102FF00000C000405819002068190020FFFFFF01A1
:1030000000F0014050190020B8E100102CE200103F
:10301000D8E100105819002000ED00E00000002069
:1030200068190020701900200FB400B583B008485B
:1030300001F05CFF049B002B07D005A9019118004B
:1030400001F064FF034801F051FF0120FFF730FF5A
:103050001CE20010CCD400109A4200D28854704771
:10306000704710B5002802D00B684968984710BD1A
:103070000100002007E083001B185B00501C086063
:103080001078C01830380A681378303BDBB2092B4F
:10309000F1D97047F0B5DE4657464E464546E0B595
:1030A00083B093461F000C9B9A460D9C0E9B99463D
:1030B0000F9B9B0703D0B8460F00060022E0019249
:1030C000A34688464E46B9460700B44207D2551C6F
:1030D0004B4641462020B84701342A00F5E73D0021
:1030E0004F465C46019B9B46B1464646B846370074
:1030F0002E0007E0013C551C5346185D434639003D
:10310000B0472A00002CF5D135003E0047460F9B02
:103110009B0707D4100003B0F0BCBB46B246A946DB
:10312000A046F0BDB0464E46B9462F005D46531B43
:10313000B342EFD2541C4B4641462020B8472200F0
:10314000F5E7F0B5CE46474680B585B0944698463B
:103150000C9D0D9C0EAB1B789946109A119B129EEC
:10316000B7071CD4002B0CD0F7070AD54F46002F09
:1031700002D10C37374204D0013B02E030272F55F3
:103180000134944201D21F2CF8D9F70707D59C428D
:1031900005D21F2C03D830272F550134F5E7F70649
:1031A00015D5770505D4002C03D0944224D09C4239
:1031B00022D00F9A102A2BD00F9A102A30D00F9AB3
:1031C000022A35D01F2C02D830222A5501341F2C58
:1031D00005D84A46002A31D02D222A5501340396BB
:1031E00002930194009543466246FFF753FF05B0F2
:1031F000C0BCB946B046F0BD621E012C06D00F9F80
:10320000102F01D01400D4E7023CD2E71400D0E71D
:10321000B206D1D41F2CCFD878222A550134D1E759
:10322000B206CCD51F2CCAD858222A550134C9E77A
:103230001F2CC7D860322A550134C3E7720703D563
:103240002B222A550134CAE73207C8D520222A5535
:103250000134C4E7F0B5DE4657464E464546E0B574
:1032600093B081468A46089209931CAB10CB1B7819
:103270009B461E9D219B9846002C03D1102342465D
:103280009A4390468023DB0046461E4042461A423F
:1032900012D0002C22D000260EE03031CBB2771CA9
:1032A0000AAA93552900200001F002F8AC4216D377
:1032B0001F2F14D83E0004002900200000F0F8FF62
:1032C000C9B20929E9D943469B0605D541235B18B4
:1032D000DBB20A3BDBB2E2E76123F8E727004346B3
:1032E0000693209B05931F9B049303955B460293D3
:1032F00001970AAB0093099B089A51464846FFF78D
:1033000020FF13B0F0BCBB46B246A946A046F0BDB4
:10331000F0B5DE4657464E464546E0B595B00890B6
:1033200009910A920B931E9E1F9C20AB1B789B4613
:10333000229B9946239D269B9A463300234303D123
:10334000103352469A4392468023DB0057461F4073
:1033500052461A4219D0330023432DD0002714E0DF
:103360003032D3B27A1C90460CAAD3554A462B0071
:103370003000210000F0DAFFA5421FD819D04346E3
:103380001F2B1BD8474606000C004A462B00300076
:10339000210000F0CBFFD2B2092AE1D953469B06A7
:1033A00005D541239B18DBB20A3BDBB2DAE7612388
:1033B000F8E7B145E3D901E0002398465346069368
:1033C000259B0593249B04934B4603935B460293F2
:1033D000434601930CAB00930B9B0A9A09990898FA
:1033E000FFF7AFFE15B0F0BCBB46B246A946A046FB
:1033F000F0BD0000F0B5DE4657464E464546E0B506
:1034000091B083468A460C9298461A9C08941B9D5C
:10341000099522002B002000290001F00AFA00285B
:1034200000D0E5E001225242D74B2000290001F0F4
:10343000FBF9002800D0DBE001225242D34B2000F0
:10344000290001F0DBF9002800D0D1E000220023A0
:10345000089E3000099D290001F0D0F9002800D015
:10346000DDE0089A099B069207938023DB001E9AF1
:103470001A400D921E9A1A4201D106231C930698F7
:10348000079904000D000A000600024300D1D1E0B4
:10349000080D4005400DBE4CA44660440A03120BC3
:1034A000BC4B13431F0001F0D7F9BB4ABB4B01F0E3
:1034B0005EF9BB4ABB4B01F03BF904000D00002252
:1034C000B94B3000390001F02EF9B84AB84B01F081
:1034D0004EF902000B002000290001F029F901F04B
:1034E000D3F9814601F0B8F904000D00B14AB24B9E
:1034F00001F03DF90022B14B01F01AF901F0C4F9D5
:103500000600AF4AAF4B2000290001F030F904005B
:103510000D00300001F0A0F9AB4AAC4B01F027F9E7
:1035200002000B002000290001F0FDF804000D004E
:1035300002000B0001F01BF90A900B91A44BF31849
:1035400000261F0522002B002000290001F0F0F8C2
:103550000E900F9122002B0000208021C90501F060
:10356000E2F804000D0000229A4B0A980B9901F032
:10357000E4F80022984B01F0DBF802000B000A98F7
:103580000B9901F0DAF80022944B01F0D1F8020017
:103590000B000A980B9901F0D0F802000B002000F4
:1035A000290001F0C5F802000B000E980F9901F0F8
:1035B000C4F80022774B01F0BBF832003B0001F069
:1035C000D6F806000F0004000D00069A079B01F0D4
:1035D0002BF9002830D001235B429C46E1440022B5
:1035E0007D4B3000390001F0A8F804000D0023E005
:1035F0001E9B04931D9B03931C9B0293089A099B9B
:103600000092019343460C9A5146584600F0FCF84C
:1036100011B0F0BCBB46B246A946A046F0BD00239F
:10362000002406930794069680231B069C46654457
:1036300007951AE7002399464B466333C62B1ED8DD
:1036400004261E9B1B0526D52B0023430FD0644A5E
:10365000644B0698079901F0DFF8002879D0002222
:10366000614B0698079901F0C9F8002871D01C9B9E
:103670004B4506DD4A469B1A013B1C9303E0052699
:10368000DFE700231C938023DB001E9A1A431E925F
:103690000026002399461D9B9E4264D29F1B022355
:1036A0001E9A1A400A921E9A134202D0002E00D08F
:1036B00000274B46002B07D022002B0006980799C5
:1036C00001F03BF806900791002200230898099921
:1036D00001F094F8002848D1444B1E9A13400493FB
:1036E00003971C9B0293069B079C009301944346FF
:1036F0000C9A5146584600F087F8002E00D187E713
:103700001E9B9B063DD54525441C43460200514661
:103710002800D8474A46D317D2185A4005230593A4
:10372000013E0496002303930A3302934B46DB0FBA
:10373000019300924346220051465846FFF78AFD06
:103740000A9B002B00D163E702005F460C9E1D9D83
:1037500054E01C9B002B9ED00D9B002B9BD01C9BF0
:10376000013B1C9397E7002799E7069C079D2200E1
:10377000290080200006844661440B0006920793CE
:10378000AAE76525C0E7C046FFFFEF7FFFFFEFFF19
:1037900001FCFFFF0000F03FFB799F501344D33F33
:1037A000B3C8608B288AC63F0000F83F61436F634F
:1037B000A787D23F71A379094F930A400000E03FE9
:1037C0001655B5BBB16B0240EF39FAFE422EE63F0B
:1037D000FF03000000002C400000244000001840BF
:1037E0002D431CEBE2361A3F80842E41FFF7FFFF8A
:1037F000541C434651462020B8472200931BAB423D
:10380000F6D3100004E7C046F0B5DE4657464E46F4
:103810004546E0B595B00690079193469946209F9E
:103820001E9A1F9B1000190001F003F8002831D1E7
:1038300001225242BF4B1E981F9900F0DFFF002863
:1038400037D101225242BC4B1E981F9900F0ECFF69
:1038500000283DD10022B94B1E981F9900F0E4FFCB
:10386000002850D10022B64B1E981F9900F0C6FFC9
:10387000002848D1002200231E981F9900F0BEFFA7
:10388000002850D100239846229B5B0500D4B6E067
:10389000002458E0229B0393219B0293032301936E
:1038A000A84B00934B465A4607990698FFF7F2FB40
:1038B0000EE1229B0393219B029304230193A24BCD
:1038C00000934B465A4607990698FFF7E3FBFFE043
:1038D0000423229A1A4022990B4210D09B4B002AB3
:1038E0000FD0042222990391219902910192009311
:1038F0004B465A4607990698FFF7CCFBE8E0944BF5
:10390000EDE70322EEE7229B0493219B03930297AA
:103910001E9B1F9C009301944B465A46079906989C
:10392000FFF768FDD4E01E9A1F9B0020002100F0E5
:10393000FAFE1E901F9101239846A5E70CAB30229A
:103940001A55013F01341F2C01D8092FF6D81E98B3
:103950001F9900F099FF050000F07EFF02000B00A8
:103960001E981F9900F0DFFE7A4BFA009B181A6828
:103970005B680A920B9300F0FAFE0890099100F040
:10398000A7FF060000F064FF02000B0008980999E9
:1039900000F0C9FE0890099100226F4B00F044FF2F
:1039A00000282ED00136300000F052FF02000B003C
:1039B0000A980B9900F028FF002801D00135002655
:1039C000002F2CD1280000F047FF02000B001E98AA
:1039D0001F9900F0A8FE06000F0000225E4B00F0C9
:1039E0000DFF002846D100225B4B3000390000F06B
:1039F0001BFF00283ED1EB073CD501353AE00627F6
:103A000046E70022544B0898099900F0F7FE002879
:103A1000D6D1002E01D0F307D2D50136D0E7AA4681
:103A20001F2C11D8013F0A21300000F041FC651C19
:103A300030310CAB19550A21300000F039FC092E49
:103A40000ED906002C00EBE755461F2C0CD87B1E28
:103A5000002F09D00CAA302111551F000134F4E7C2
:103A60002B0055461C00F0E71F2C03D80CAB2E2270
:103A70001A5501341F2C10D80A21280000F0F0FB41
:103A8000661C30310CAB19550A21280000F0E8FB08
:103A9000051E01D03400EDE734000323229A1340C1
:103AA000012B1CD01F2C06D84346002B32D00CAB68
:103AB0002D221A550134229B0393219B02930194DA
:103AC0000CAB00934B465A4607990698FFF7E2FA6B
:103AD00015B0F0BCBB46B246A946A046F0BD219B3E
:103AE000002B13D04346002B02D10C3313420FD0CE
:103AF000219B013B2193190003E00CAB30221A55A6
:103B000001348C42CED21F2CF7D9CBE72199F8E7AC
:103B10002199F6E7229B5B0704D50CAB2B221A55A3
:103B20000134C8E7229B1B07C5D50CAB20221A55D0
:103B30000134C0E7FFFFEFFFFFFFEF7F65CDCD4111
:103B400065CDCDC148E200104CE200103CE200100F
:103B500044E20010F0E300100000E03FF0B5DE4664
:103B600057464E464546E0B593B082468B46904652
:103B70001193002900D100E300275446119B1878C7
:103B8000002800D1FCE2252809D07D1C43463A00DC
:103B90005946A047119B013311932F00EEE70133E3
:103BA00011930025119A11780B00203BD8B21028F0
:103BB00003D88300C248C3589F460B00303BDBB29A
:103BC000092B2CD92A292FD000230A93119B1A786C
:103BD0002E2A39D000239946119A1378683BD9B21E
:103BE000122976D88B00B749CB589F4601231D4335
:103BF00001321192D6E702231D4301321192D1E71F
:103C000004231D4301321192CCE708231D430132E6
:103C10001192C7E710231D4301321192C2E711A888
:103C2000FFF726FA0A90D1E71C9B1A1D1C921B680D
:103C3000002B04DB0A93119B01331193C6E7022288
:103C400015435B420A93F6E78022D20015435A1CC3
:103C500011925A781300303BDBB2092B04D92A2A7F
:103C600007D000239946B7E711A8FFF701FA81466C
:103C7000B2E71C9B1A1D1C921B68002B04DB9946A3
:103C8000119B01331193A7E70023F8E780235B0022
:103C90002B43511C119152786C2A01D01D0018E061
:103CA000C0239B001D430131119112E080232B435F
:103CB000511C11915278682A01D01D0009E0C023DF
:103CC0001D430131119104E080235B001D4301324B
:103CD0001192119B1878672816D8252826D303003F
:103CE000253BDAB2422A21D89300774AD3589F461F
:103CF00080239B001D4301321192EAE780235B0081
:103D00001D4301321192E4E778280FD869280DD3BA
:103D10000200693AD2B2012393406C4A13420FD198
:103D20001A0600D503E25B0500D594E17D1C4346ED
:103D30003A005946A047119B013311932F001DE70C
:103D4000782809D0622838D06F2838D0582838D041
:103D500010239D430A2600E01026582833D06928F6
:103D600003D0642801D00C2295436A0501D50122B5
:103D7000954369282AD0642828D0AA0500D5A7E051
:103D8000EA0500D5C0E06A0600D4D2E01C9A111DF5
:103D90001C911168FF220A4005950A9B04934B462B
:103DA0000393029600230193009243463A0059463A
:103DB0002000FFF74FFA070027E00226CDE708268C
:103DC000CBE71026C9E720221543C8E7AA0520D46F
:103DD000EA0550D46A0666D51C9A111D1C9111681B
:103DE000FF220A40D0171118414005950A9B049301
:103DF0004B4603930296D20F0192009143463A003C
:103E000059462000FFF726FA0700119B0133119352
:103E1000B4E61C9A073207218A43110008311C912D
:103E2000116853689C46DB170C930D930C9A0D9BFD
:103E3000100048400E90624653400F930E980F9921
:103E40000C9A0D9B801A99410E900F9108950A9B30
:103E500007934B4606930496002305936346DA0FB7
:103E600002920090019143463A0059462000FFF724
:103E70004FFA0700C9E71C9A111D1C911268D01750
:103E80001118414005950A9B04934B4603930296F3
:103E9000D20F0192009143463A0059462000FFF7A5
:103EA000D9F90700B1E72A0605D51C9A111D1C9106
:103EB0000023D25E96E71C9A111D1C91126891E7AF
:103EC00054E2001098E20010E4E20010419000007B
:103ED0001C9A073207218A43110008311C9108956A
:103EE0000A9B07934B46069304960023059302937F
:103EF000536812680092019343463A0059462000E5
:103F0000FFF706FA070080E71C9A111D1C91059522
:103F10000A9B04934B460393029600230193136874
:103F2000009343463A0059462000FFF793F90700F3
:103F30006BE72A0606D51C9A111D1C911268120403
:103F4000120C29E71C9A111D1C91126824E74628BF
:103F50001AD01C9B0733072293431A0008321C9285
:103F600004950A9A03924A4602921A685B68009284
:103F7000019343463A0059462000FFF745FC0700ED
:103F8000119B01331193F9E520231D43E1E76728D5
:103F900001D0472802D180231B011D43452801D0B1
:103FA000472801D120231D431C9B0733072293433D
:103FB0001A0008321C9204950A9A03924A46029209
:103FC0001A685B680092019343463A005946200004
:103FD000FFF710FA0700119B01331193CEE502237E
:103FE0001A002A4092462B421FD001251C9B1A1D05
:103FF0001C927A1C9146187843463A005946A047CD
:104000005346002B16D1119B013311934F46B5E552
:10401000561C434659462020B8472B0032005D1CF1
:104020009C42F5D83C001700E0E701233A00270046
:104030000A9CF4E74A46A1460A9C06E0571C434600
:1040400059462020C84735003A006E1CAC42F5D8CE
:104050004C469146D7E71C9B1A1D1C921E684B4686
:10406000002B00D1013B310001E0013113000A783F
:10407000002A02D05A1E002BF7D1891B10918023F1
:10408000DB002A001A4092461D4203D0494501D95F
:104090004B46109302231A002A400B922B4205D064
:1040A0003A00574623004C46994620E03A00109BC0
:1040B0005F46B346260006E0541C434639002020E4
:1040C000B0472B0022005D1C0A999942F4D83400B5
:1040D0005E46BB461095574623004C46994606E07F
:1040E0001C000136551C43465946C8472A00307803
:1040F000002804D0002FF4D0631E002CF0D117004C
:104100004C460B9B002B03D1119B0133119335E5DA
:104110000A9F109B06E0561C434659462020A047A4
:104120002B0032005D1C9F42F5D81700ECE72123DD
:104130002B431C9A111D1C911268059308230493AC
:104140004B460393102302930023019300924346AE
:104150003A0059462000FFF77DF80700119B013314
:1041600011930BE57D1C43463A0059462520A04794
:10417000119B013311932F0000E50B4B9A46FBE492
:10418000A246474502D343465A1E00E03A00434642
:1041900059460020D047380013B0F0BCBB46B246A9
:1041A000A946A046F0BDC046613000100EB430B53F
:1041B00084B0010007AC08CC03940122054D0094A3
:1041C00052422800FFF7CAFC04B030BC08BC03B060
:1041D0001847C0465930001000B585B002900391D1
:1041E00001210448009313004A4202A9FFF7B6FCDC
:1041F00005B000BD6330001001480421014B184791
:10420000300F00202942001010B5010018231B8830
:1042100014221088984710BD10B5010018231B8880
:1042200016221088984710BDF0B5C64600B50700A5
:104230000E0000250123984600E00135B5420AD260
:10424000AC003C192068FFF7DFFF20600028F4D1A4
:1042500000239846F1E7404680BCB846F0BD000018
:10426000124A936F9B0815D29066D166002905D03B
:10427000FFE7FFE7FFE7516F106F704704B580213C
:104280000906C2175140002800D0C84308F01CFF9F
:10429000002104BDF0B5146E556E576F166FFFF711
:1042A000E3FF1466556657671667F0BD000000D03F
:1042B000114A936F9B0813D210665166002905D0EE
:1042C000FFE7FFE7FFE7516F106F704704B5002865
:1042D00001D00020C04308F0F7FE002104BDC04615
:1042E000F0B5146E556E576F166FFFF7E5FF146645
:1042F000556657671667F0BD000000D094464A4ADD
:10430000926F9208624601D228E0C046F0B5464E50
:10431000346E756E776F366F00F020F89446424A1F
:1043200014665566576716676246F0BD94463E4A66
:10433000926F9208624601D254E0C046F0B53A4E00
:10434000346E756E776F366F00F04CF89446364ACF
:1043500014665566576716676246F0BD002B24DB6E
:1043600011D000293EDA00B5C943404200D10131E5
:1043700000F038F8C943404200D10131DB435242DA
:1043800000D1013300BD002AEBD1002801D1002962
:1043900005D00020C90FC90701D1C043410800B5AD
:1043A00008F082FE0022002300BD00B500290ADBD0
:1043B000DB43524200D1013300F014F8C9434042BC
:1043C00000D1013100BDC943404200D10131DB437E
:1043D000524200D1013300F005F8DB43524200D1D4
:1043E000013300BD002923D1002B18D1002A0CD0A5
:1043F000BC460D4F38667A6600210023FFE7FFE7D1
:10440000FFE77A6F386F67467047002801D007488A
:10441000010000B508F048FE0022002300BD0200A4
:104420000B00002000217047000000D0FFFFFFFFBD
:10443000002B00D0BFE0130C28D1002AE7D080B4B5
:10444000114F39667A66FFE7FFE730B4040C7B6FE3
:10445000396F1B0423433B667A66FFE7FFE7FFE7FC
:10446000C04684B27B6F3D6F1B0423433B667A6674
:10447000FFE7FFE7C04600232C042D0C7A6F386F4E
:1044800000196941B0BC7047000000D0F0B59446F7
:104490000025140E01D112020835140F01D11201AA
:1044A0000435940F01D192000235D40F01D152008E
:1044B0000135D40B0134254F7C66254C3C660E0C2F
:1044C00093B2FFE7FFE7FFE73C6F6643360C7703E5
:1044D000BE467343DF0B5B04C01AB941130C734330
:1044E000DB18C91ACE086643360CB64493B2734340
:1044F0001F0F1B01C01AB941130C73431F0B1B057F
:10450000C01AB941860D8F023E436643360C092D11
:1045100024DB520A7243801A7703460A6643360C3C
:1045200016235B1BDE40DF40BF1964466643821BD7
:104530007046043506330100D940A840C01900D3A5
:104540000131A24206D20023F0BD0000000000D0DD
:10455000FFFFFFFF121B0130F3D3F1E709277F1B99
:10456000FE406446A2B27243801A00D20139220C86
:104570007243130C1204821A99410B0070460435E1
:1045800013370100F940A840801900D30131002BF6
:1045900002D1A2420AD2F0BD013000D30131121B78
:1045A000FAD2013BF8D1A24200D2F0BD013000D3D3
:1045B0000131121BF7E7F0B51C0C00D080E00CB401
:1045C00000251C0A04D11B02160E334312020835C3
:1045D0001C0B04D11B01160F3343120104359C0B35
:1045E00004D19B00960F334392000235DC0B02D1BD
:1045F00092185B4101351C00971864410134464F05
:104600007C66464C3C660E0CFFE7FFE7FFE7C046C2
:104610003C6F6643360C7703BE4697B27743C01BA8
:1046200000D20139C01B00D201399FB27743C91BA8
:10463000C91B170C77437E04FF0B801BB941CE08C2
:104640006643360C0C2D33DBB644120B1F053A4380
:104650001B0B97B27743C01B00D201399FB277433F
:10466000C91B170C77433E043F0C801BB941860DD4
:104670008F023E43664329277F1BFE400C3D774651
:10468000AF40BF1930BCA2B2ABB272437343801AC1
:104690009941220C7243130C1204801A99410200B2
:1046A0000B000137001BA941F9D2781E0021F0BD93
:1046B0000C277F1BFE4077467F0BAF40FF19E0E7DA
:1046C00000245D1C07D0144F7D663966FFE7FFE7C5
:1046D000FFE7FFE73C6F95B29EB265436643401B20
:1046E000B141150C1E0C6543664336042F0C3E4346
:1046F0002D04401BB141994204D202000B0020005E
:104700000021F0BD01D19042F7D3801A99410134C4
:104710009942F2D3F6E70000000000D0FFFFFFFF50
:1047200048404140484018B4134B5B68019308BDB2
:1047300018B4114B1B68019308BD94460F4A926F41
:10474000920805D2624618B40B4BDB68019308BD92
:104750000A4AF0B5146E556E576F166F6246FFF732
:10476000F2FF064A1466556657671667F0BD18B41F
:10477000014B9B68019308BDFC240020000000D081
:10478000FFB550404240504059404B40594000E036
:10479000FFB5154F4C00640D03D0BC4204D10C038F
:1047A00014D80020090D09055C00640D03D0BC423B
:1047B00004D11C030AD800221B0D1B0501264B4007
:1047C00009D44B4003D58B4200D18242FFBD9942B0
:1047D000FCD19042FFBD0B43DB1803431343F5D0DC
:1047E000C9434918FFBD0000FF07000000B5FFF7EF
:1047F000CFFF01D0002000BD012000BD00B5FFF7B4
:10480000C7FF804100BDC04600B5FFF7C1FF01D919
:10481000002000BD012000BD00B5FFF7B1FF01D9A8
:10482000002000BD012000BD00B5FFF7A9FF8041B9
:1048300000BD012040054A00121804D85A00121881
:1048400001D8002070470120704700207047000009
:104850000021002805D17047C1174840401AFAD0FE
:10486000C90713B5064B1B6898470CBC441CA240F3
:104870001005120B0349091B09051943114310BD0B
:10488000FC2500201F04000010B54C00620D8023A1
:10489000D218DB00D21A5B057E2A10DD9E3A13DAAD
:1048A000CC170903490819435242D140640001342E
:1048B0001532202A05DAD0400843604310BD00209D
:1048C00010BD0846604310BDC80FC018013810BDA8
:1048D00018B4024B5B6A019308BD0000FC24002061
:1048E00018B4024BDB6D019308BD0000FC240020CE
:1048F000C94211D300B549004908002200F014F85C
:10490000002904D4002240428A41114600BD802182
:104910000906002000BD000018B4024BDB6E0193B5
:1049200008BD0000FC24002018B4024B9B6F0193CB
:1049300008BD0000FC24002018B4024BDB6F01937B
:1049400008BD0000FC24002010B50148FEF76CFBF8
:1049500040E4001070B513231C78012C14D0012CF6
:1049600014DC022C02DC1F4B1F4A93641F48FFF724
:104970004BFC1F4B186070BD1E491B4A98008150AC
:1049800001331F2BF8D9EAE70023FAE71A48FFF7AB
:1049900043FC05001948FFF73FFC023803789B00F1
:1049A0007F2B19DD10488022290000F029F9022C04
:1049B000D7D1134B1A88B5231B029A4209D1114B48
:1049C0001A88114B9A4204D1104B1A88104B9A4204
:1049D000C7D00020FEF728FB0E4B0F4A0F483221AC
:1049E000FEF788FA214A0010FC2400204C33000016
:1049F000FC250020494900105344000053460000A4
:104A000054380000D8380000494600009C380000A7
:104A10005946000058E4001004E50010B8E4001006
:104A200007B56046002800D100BE01880A0A02309E
:104A3000DF2AFAD1C9B2820804D302884088000470
:104A4000104300E00068024A5050039007BD000088
:104A5000FC24002051434343C9188C46110C83B2F7
:104A60004B4310B4040C614392B280B25043624392
:104A70001C041B0C001910BC59411304120CC01863
:104A8000514161447047000007B5484041404840EB
:104A900001E0C04607B54200120E03D0FF2A03D141
:104AA000420218D8C00DC0054A00120E03D0FF2ADA
:104AB00003D14A020FD8C90DC9050122414005D4CE
:104AC000414001D5814207BD884207BD01434918D5
:104AD00001D0C043001807BD00B5FFF7DBFF01D0D0
:104AE000002000BD012000BD00B5FFF7CDFF8041D3
:104AF00000BD0000014BDB6F1847000000260020BE
:104B000010B50148FEF790FA84E1001070B5132348
:104B10001E781848FFF780FB0500012E11D0012EEA
:104B200009DDAB1E1B789B007F2B1DDD1248802208
:104B3000290000F065F81148FFF766FB104B18607C
:104B400070BD0D485422290000F05AF8002300E0FF
:104B500001331F2BE3D8084A9C00A258002AF7D142
:104B60000849054AA150F3E7074B084A0848422183
:104B7000FEF7C0F953460000002600204C33000029
:104B8000FC250020014B001018E5001094E50010F2
:104B90004CE5001010B5040002F04EFF002804D0D0
:104BA0000419034B9C4200D810BD0248FEF73CFAA2
:104BB00000000420A8E5001010B50C0003F012FA64
:104BC000002804D00419034B9C4200D810BD0248B1
:104BD000FEF72AFA00000420A8E5001010B502F044
:104BE00035FF10BD01480421014B1847400F00203C
:104BF00029420010014B1B6818470000400F00209D
:104C0000014B5B6818470000400F002010B50300FF
:104C1000080011001B68984710BD0000F8B5070098
:104C20000D001600437D002B02D0002400200CE074
:104C300003681100280098472DE03B7D10E03B6899
:104C4000154802219847601C0134B44214DA002C44
:104C5000F3DD2B19013B1B780D3B5A425341DBB26C
:104C60002A5D0A2AF0D1002BEED1A042E7DA3B6898
:104C7000211A28189847E2E7B04203DA3B68311A54
:104C800028189847002E06DDAD19013D2B780D3B05
:104C90005A4253413B75F8BD98E6001070B50500C7
:104CA0000368002B16D00C4B1C6805E0290004C9D2
:104CB0002000FFF7B3FF2469002C09D02368002BE4
:104CC000F9D0064B1B68002BF0D0A342F3D1EDE7DF
:104CD00000232B6070BDC046A4200020B02000201F
:104CE00070B505000C000B68802B05D023685A1C9A
:104CF0002260E418257170BD0800FFF7CFFFF5E7CB
:104D0000F0B583B007000E000092019328E0A3687D
:104D1000002B04D0310038009847002827DC246994
:104D2000002C06D0134B1D68002DF0D0A542F6D103
:104D3000EDE70099019A104B5B6A9A4209D80E4838
:104D4000806A88420FD29A4201D0012302E00023F8
:104D500000E00023002B08D101200021FDF76CFBAF
:104D6000064B1C68DCE70123F4E70120404203B056
:104D7000F0BDC046B020002000400540A420002027
:104D800010B5FDF739FB02000B1E0BDB0D480021AF
:104D900012184B41002B0BDB002B0DDB0A4808F0EF
:104DA000BBF910BD094B0A4A0A483F21FEF7A2F899
:104DB00001225242084BEFE7044B054A05483F21C8
:104DC000FEF798F840420F005019002004DA001056
:104DD00080E6001020DA0010FFFFFF7F10B50248C8
:104DE00008F05AF910BDC04650190020F0B5CE4663
:104DF000474680B583B006000D0090461C00FFF7C3
:104E0000BFFF81466B1C05D0002C08D0194F1A4BF0
:104E10001C6807E0300003F0E1FA0500F4E7174FE3
:104E2000F5E72469002C17D02368002BF9D0144B28
:104E30001B68002B01D0A342F3D12A0031002000CF
:104E4000B8474346002BECD06B46D91D0A230B70A4
:104E500001222000B847E4E74B46002B07D16B1E28
:104E60009D41E8B203B0C0BCB946B046F0BDFFF703
:104E7000B5FFF4E70D4C0010A42000201D4C0010DD
:104E8000B020002010B582B004006B46D81D04701D
:104E9000002300220121FFF7A9FF200002B010BD6E
:104EA000094A01E010331A001368002B08D083422E
:104EB000F8D1002907D1036913600023036102E0E0
:104EC000002900D010607047A420002010B5064BC8
:104ED0001C6801E098472469002C03D06368002B0C
:104EE000F8D1F8E710BDC046A420002070B5050039
:104EF00003F074FA04000023012201002800FFF7E8
:104F000075FFFFF7E3FF200070BD000070B5A2B091
:104F100004000E00FFF734FF0500002301930A4848
:104F20003300220001A9FFF757F9040001A8FFF799
:104F3000B5FEFFF7CBFF002D02D1200022B070BDDF
:104F4000FFF74CFFF9E7C046E14C00100FB400B585
:104F500083B004A901C90191FFF7D8FF03B008BCD1
:104F600004B0184710B500F073F910BD30B583B028
:104F700004000025FDF740FA02000B1E10DB121999
:104F80006B41002B12DB002B14DB012101A8FFF782
:104F9000B7FE002802DB13D001AB187803B030BD98
:104FA0000B4B0C4A0C483F21FDF7A4FF0122524253
:104FB0000A4BE8E7064B074A07483F21FDF79AFFEF
:104FC000074B084A9E2108484900FDF793FFC04659
:104FD00004DA001080E6001020DA0010FFFFFF7FE7
:104FE000F0DC00106CE600102CE6001070470000AA
:104FF000014B00221A707047332700204B79FF2B9A
:105000000CD18B79002B0BD1CB79012B0AD1082A3B
:105010000AD98A78054B1A70092000E000207047F1
:105020000020FCE70020FAE70020F8E73327002003
:105030000120704770B504000D000348FFF7E4F845
:1050400003002900200098475542000010B50129AF
:1050500026D1117953791B020B43124909788B42EF
:1050600001D000201DE05378012B03D0022B10D07B
:10507000002016E09178D3781B021943DB0506D592
:105080004B0A012098407F231940FFF7D3FF0020EF
:10509000F9E7642200210020FDF7D2FE012000E0A4
:1050A000012010BD33270020012303700048704702
:1050B0009CE6001010B50A784B781B0213438A78DF
:1050C00012041A43CB781B0613439622D200934254
:1050D00000D010BD00210800FFF7ACFF024B1860A4
:1050E000024B19607047C046082000200C200020A9
:1050F00010B5024B1878FCF77BF810BD3427002060
:1051000070B5124B1B68002B1BD0EFF3108272B6E8
:1051100019680029FCD0BFF35F8F0C4842600C4B2C
:10512000002119700368BFF35F8F196082F3108844
:1051300000240025074B1878FCF75AF820002900B6
:1051400070BDFA24A4000025F4E7C046DC2400204A
:10515000352700203427002010B584B02C480021CA
:1051600007F0BAFF002838D12A4B1B68002B3CD02F
:10517000EFF3108272B619680029FCD0BFF35F8F7D
:1051800024494A602448037801246340DBB20124A7
:1051900004700968BFF35F8F0020086082F31088F5
:1051A000002B22D0FCF788FE0400FDF725F9020051
:1051B0000B1E1CDBFA208000002112184B41002B33
:1051C0001BDB002B1DDB0121029100210191134902
:1051D00000912000FCF786FE07E0012000214042FC
:1051E00001F0F8F80A4807F057FF04B010BD0C4B67
:1051F0000C4A0D483F21FDF77DFE012252420B4B28
:10520000DFE7074B074A08483F21FDF773FEC0461A
:1052100004270020DC240020352700200151001045
:1052200004DA00102CE7001020DA0010FFFFFF7FE7
:1052300010B5054B1868002804D0044B19680022EB
:1052400000F0ECFD10BDC046082000200C2000201E
:1052500010B584B0D0231B061C68FCF72DFEFCF7AC
:105260006DFFA04230D1D0231B061A78334B1A7041
:10527000334B1B7801F096FD3248FCF795FA01207C
:10528000FCF774FAC0B2304C20703049FBF7D2FF03
:1052900020780121FBF7A4FF0520FBF7B9FF041ECE
:1052A00018D02B4900220520FBF7EEFFFBF704FF87
:1052B0000100284B1800FCF793FA27480121FFF75B
:1052C000EFFD200004B010BD244B254A2548B52130
:1052D000FDF710FEFCF7F0FD0400FDF78DF802006D
:1052E0000B1E1BDBFA208000002112184B41002B03
:1052F0001ADB002B1CDB01210291002101911A49CC
:1053000000912000FCF7EEFDC443E40F1148082291
:105310000021FFF76FFC002CD3D0CEE7134B144ACB
:1053200014483F21FDF7E6FD01225242124BE0E70F
:105330000E4B0F4A0F483F21FDF7DCFD36270020BA
:10534000785D0110042700203427002059510010F7
:10535000F1500010DC240020500F0020BCD80010B9
:105360001CE70010B4E600100151001004DA001030
:105370002CE7001020DA0010FFFFFF7F10B500209F
:1053800001F030FA10BD000070B505000C00FFF709
:10539000F5FF002845D0002001F046FA002843D050
:1053A000FDF72AF802000B1E21DB2248002112180B
:1053B0004B41002B21DB002B23DB1F4807F0ACFE09
:1053C000002834D0FFF7DAFF002804D0002001F0D5
:1053D0002BFA00281BD101200021404200F0FAFFE7
:1053E00003246442144807F057FE200070BD134B9D
:1053F000134A14483F21FDF77DFD01225242124B12
:10540000D9E70E4B0E4A0F483F21FDF773FD2200EE
:105410002900002001F014FA041EE3D103246442A1
:10542000E0E703246442E0E703246442DDE7032469
:105430006442DAE740420F000427002004DA00103B
:105440002CE7001020DA0010FFFFFF7FF0B5C64602
:1054500000B580460C00FCF7CFFF02000B1E0FDBEF
:105460003748002112184B41002B0FDB002B11DBBA
:10547000344807F051FE002812D180BCB846F0BD78
:10548000314B324A32483F21FDF734FD012252426E
:10549000304BEBE72C4B2D4A2D483F21FDF72AFDE1
:1054A000FFF76CFF002849D12B4B0020002118602A
:1054B0005960244807F0F0FDDFE701200021404259
:1054C00000F088FF002001F0CFF9FFF757FF002818
:1054D000EFD0002001F040FA002820D0A542E8DA01
:1054E000661B002001F038FA0200864200DC320020
:1054F000002AE2D043465919002001F011FA0600B3
:1055000001200021404200F065FF002001F0ACF9CD
:10551000AD19FCF771FF104B18605960DEE7FCF71E
:105520006BFF0D4B1E685F680C4A002392197B418C
:105530009942BED8D2D19042D0D9BAE70025CDE762
:1055400040420F000427002004DA00102CE700106E
:1055500020DA0010FFFFFF7F701A002020A1070053
:1055600000487047C4E700100048704770E700101B
:1055700010B50400154B1B78002B0ED0002C11D158
:10558000134B144A5A80012301335B001BB2C02223
:10559000920013430E48038010BD0C48112100F007
:1055A00025F8EBE7052C0ED80B4BA400E45800239C
:1055B000122BE9D8E15C0029E6D00133044A5800F7
:1055C0001152DBB2F4E70020E6E7C0461C270020BA
:1055D0007C20002009040000D8E7001010B5024824
:1055E00000F032F810BDC046F424002010B50029A8
:1055F00001D000230AE0104B104A11481F31FDF77B
:1056000079FC00220DE03732C25401334A1E9A421F
:105610000ED90F2B0CD85A080A4CA45CDA07F0D428
:10562000042214410F222240092AECDC3032EBE73D
:10563000C0180023037010BDF0E7001040E8001010
:10564000F8E70010F424002070B588B0040004AD21
:10565000002604960922002105A8FFF7CBFA009640
:105660000922002101A8FFF7C5FA4B232B700D2258
:105670006946280007F008FD002304E05A1D69462A
:105680008A5CE2540133072BF8DD08B070BD0000DE
:1056900002007F201040D209400080184001014BD9
:1056A000C0187047B820002010B5038B3F333F224D
:1056B0009343022915D0124C2268C260D31823608C
:1056C0009C0610D10F4C6240634080246401A342C9
:1056D0000FD88906114380231B060B4342681360D1
:1056E00010BD5B00E7E7084B084A09485421FDF765
:1056F00001FC084B054A06485621FDF7FBFBC04656
:10570000C024002000001050CCE90010E8EA00108E
:10571000FCE9001054EA0010F8B505000E00140072
:10572000FFF7B6FF7F232B40EF0985707A427A415D
:1057300042700022C2700683C476012F0DD0DA00B9
:1057400012498C4662448260826800211160002BFD
:1057500009D143600E4BC360F8BDDA000D498C4699
:1057600062448260F0E7012F09D0013BDB000A4A66
:105770009446634443602100FFF796FFECE7013B4A
:10578000DB00064A944663444360F4E7840010500B
:1057900000011050800010500C00105008001050F4
:1057A00070B50C001500FFF773FF2A00210000F010
:1057B0000DF970BD10B5002804D101210520FBF7BB
:1057C0000FFD10BD034B044AD52104484900FDF7E5
:1057D00091FBC0469CEA0010D8EA0010FCE90010DA
:1057E00010B5002805D1002200218020FFF7D8FF46
:1057F00010BD034B034ADB2103484900FDF77AFB48
:105800009CEA0010C8EA0010FCE90010024B80225C
:105810005202DA647047C0460020115070B5041E71
:1058200026D100F0ADF8164D0C23AB671549FF22C9
:105830000520FBF729FD144840220021FFF7DAF983
:10584000002240210020FFF767FF00224021802036
:10585000FFF762FF07F058FC01232B6480239B05B0
:10586000EB649023094AEA502000FFF7CFFF70BD98
:10587000074B084A86210848FF31FDF73BFBC0462D
:1058800000001150A1040020B820002010D0010019
:105890009CEA0010FCEA0010FCE900100B785B06A3
:1058A00002D14B78052B00D070478A78014B1A60E3
:1058B000FAE7C0460000115010B50A0000280DD1CB
:1058C0008878097953791B020B435B05590DD2780F
:1058D0009207920FFFF720FF012010BD034B044AEF
:1058E000FC210448FF31FDF705FBC0469CEA00108F
:1058F000B8EA0010FCE9001010B507F005FC10BD77
:1059000010B50400080011001A00002C03D1FFF7A5
:1059100047FF012010BD034B034A04480449FDF72B
:10592000E9FAC0469CEA0010A8EA0010FCE9001061
:105930000A02000010B508004B0605D1CB09012B67
:105940000AD00222054B9A66FFF7A2FE80221201BE
:10595000002107F0F9FB10BD0122F3E700201150F0
:1059600010B508004B0600D110BDFFF791FE0023D3
:10597000C3700022014907F0E7FBF5E7FFF7FFFFDF
:1059800010B580235B040C4A13600C4A13600C4B67
:105990009A6880235B049343F9D10A4C9C2200212E
:1059A0002000FFF727F98022520100210648FFF767
:1059B00021F90923636710BD00E0004000F00040BA
:1059C00000C00040000011500000105070B50400ED
:1059D0000D001600837E002B17D1A6820023E382E0
:1059E0000133A3762561200007F0B6FB002804D020
:1059F000094A902380218902D150200007F05CFBE6
:105A0000002805D00123237770BD07F095FBE4E75C
:105A1000200007F089FBF7E70020115070B5050062
:105A200000240CE062001219D200184B1B689B186E
:105A3000002B2AD05B68280098470134E4B2144B4D
:105A40001B78A34210D3134A002A0BD0A342E9D8F3
:105A5000E31ADBB2002B18D10F4A5900C918C9004C
:105A60005318E5E72300F5E70C4C532200212000F2
:105A7000FFF7C0F8E01C1022FF21FFF7BBF8200061
:105A800013302022FF21FFF7B5F870BDAC1A0020BB
:105A90002D270020A950001090EC0010D41D0020EC
:105AA00010B5FFF7BBFF00F0F3FD10BD70B50500AA
:105AB0000C001600C86800F0F5FDE3683200012113
:105AC0002800984770BD0000F0B5DE4657464E46A8
:105AD000C0B582B000900139C8B2FFF745FD041E81
